{
  "abi": [
    {
      "inputs": [
        {
          "internalType": "address",
          "name": "_admin",
          "type": "address"
        },
        {
          "internalType": "address[]",
          "name": "_guardedContracts",
          "type": "address[]"
        }
      ],
      "stateMutability": "nonpayable",
      "type": "constructor"
    },
    {
      "inputs": [],
      "name": "admin",
      "outputs": [
        {
          "internalType": "address",
          "name": "",
          "type": "address"
        }
      ],
      "stateMutability": "view",
      "type": "function"
    },
    {
      "inputs": [
        {
          "internalType": "address",
          "name": "_tokenAddress",
          "type": "address"
        },
        {
          "internalType": "uint256",
          "name": "_amount",
          "type": "uint256"
        },
        {
          "internalType": "address",
          "name": "_recipient",
          "type": "address"
        }
      ],
      "name": "getMaxWithdrawal",
      "outputs": [
        {
          "internalType": "uint256",
          "name": "",
          "type": "uint256"
        }
      ],
      "stateMutability": "view",
      "type": "function"
    },
    {
      "inputs": [
        {
          "internalType": "uint256",
          "name": "",
          "type": "uint256"
        }
      ],
      "name": "guardedContracts",
      "outputs": [
        {
          "internalType": "address",
          "name": "",
          "type": "address"
        }
      ],
      "stateMutability": "view",
      "type": "function"
    },
    {
      "inputs": [
        {
          "internalType": "address",
          "name": "",
          "type": "address"
        },
        {
          "internalType": "uint256",
          "name": "",
          "type": "uint256"
        }
      ],
      "name": "inflows",
      "outputs": [
        {
          "internalType": "uint256",
          "name": "amount",
          "type": "uint256"
        },
        {
          "internalType": "uint256",
          "name": "timestamp",
          "type": "uint256"
        }
      ],
      "stateMutability": "view",
      "type": "function"
    },
    {
      "inputs": [
        {
          "internalType": "address",
          "name": "",
          "type": "address"
        },
        {
          "internalType": "address",
          "name": "",
          "type": "address"
        }
      ],
      "name": "lockedFunds",
      "outputs": [
        {
          "internalType": "uint256",
          "name": "",
          "type": "uint256"
        }
      ],
      "stateMutability": "view",
      "type": "function"
    },
    {
      "inputs": [
        {
          "internalType": "address[]",
          "name": "_guardedContracts",
          "type": "address[]"
        }
      ],
      "name": "modifyGuardedContracts",
      "outputs": [],
      "stateMutability": "nonpayable",
      "type": "function"
    },
    {
      "inputs": [
        {
          "internalType": "address",
          "name": "_tokenAddress",
          "type": "address"
        },
        {
          "internalType": "uint256",
          "name": "_withdrawalLimitPerPeriod",
          "type": "uint256"
        },
        {
          "internalType": "uint256",
          "name": "_withdrawalPeriod",
          "type": "uint256"
        }
      ],
      "name": "overrideLimit",
      "outputs": [],
      "stateMutability": "nonpayable",
      "type": "function"
    },
    {
      "inputs": [
        {
          "internalType": "address",
          "name": "_user",
          "type": "address"
        }
      ],
      "name": "pushAlert",
      "outputs": [],
      "stateMutability": "nonpayable",
      "type": "function"
    },
    {
      "inputs": [
        {
          "internalType": "address",
          "name": "_tokenAddress",
          "type": "address"
        },
        {
          "internalType": "uint256",
          "name": "_amount",
          "type": "uint256"
        },
        {
          "internalType": "address",
          "name": "_recipient",
          "type": "address"
        }
      ],
      "name": "recordInflow",
      "outputs": [],
      "stateMutability": "nonpayable",
      "type": "function"
    },
    {
      "inputs": [
        {
          "internalType": "address",
          "name": "_tokenAddress",
          "type": "address"
        },
        {
          "internalType": "uint256",
          "name": "_amount",
          "type": "uint256"
        },
        {
          "internalType": "address",
          "name": "_recipient",
          "type": "address"
        }
      ],
      "name": "recordInflowAndWithdrawAvailable",
      "outputs": [],
      "stateMutability": "nonpayable",
      "type": "function"
    },
    {
      "inputs": [
        {
          "internalType": "address",
          "name": "_tokenAddress",
          "type": "address"
        },
        {
          "internalType": "uint256",
          "name": "_withdrawalLimitPerPeriod",
          "type": "uint256"
        },
        {
          "internalType": "uint256",
          "name": "_withdrawalPeriod",
          "type": "uint256"
        }
      ],
      "name": "registerToken",
      "outputs": [],
      "stateMutability": "nonpayable",
      "type": "function"
    },
    {
      "inputs": [
        {
          "internalType": "address",
          "name": "",
          "type": "address"
        }
      ],
      "name": "tokens",
      "outputs": [
        {
          "internalType": "uint256",
          "name": "totalAmount",
          "type": "uint256"
        },
        {
          "internalType": "uint256",
          "name": "amountWithdrawnSincePeriod",
          "type": "uint256"
        },
        {
          "internalType": "uint256",
          "name": "withdrawalPeriod",
          "type": "uint256"
        },
        {
          "internalType": "uint256",
          "name": "withdrawalLimitPerPeriod",
          "type": "uint256"
        },
        {
          "internalType": "bool",
          "name": "exists",
          "type": "bool"
        }
      ],
      "stateMutability": "view",
      "type": "function"
    },
    {
      "inputs": [
        {
          "internalType": "address",
          "name": "_admin",
          "type": "address"
        }
      ],
      "name": "transferAdmin",
      "outputs": [],
      "stateMutability": "nonpayable",
      "type": "function"
    },
    {
      "inputs": [
        {
          "internalType": "address",
          "name": "_tokenAddress",
          "type": "address"
        },
        {
          "internalType": "uint256",
          "name": "_amount",
          "type": "uint256"
        },
        {
          "internalType": "address",
          "name": "_recipient",
          "type": "address"
        }
      ],
      "name": "withdraw",
      "outputs": [],
      "stateMutability": "nonpayable",
      "type": "function"
    }
  ],
  "bytecode": {
    "object": "0x60806040523480156200001157600080fd5b506040516200136038038062001360833981016040819052620000349162000121565b600080546001600160a01b0319166001600160a01b0384161790558051620000649060019060208401906200006d565b5050506200020a565b828054828255906000526020600020908101928215620000c5579160200282015b82811115620000c557825182546001600160a01b0319166001600160a01b039091161782556020909201916001909101906200008e565b50620000d3929150620000d7565b5090565b5b80821115620000d35760008155600101620000d8565b80516001600160a01b03811681146200010657600080fd5b919050565b634e487b7160e01b600052604160045260246000fd5b600080604083850312156200013557600080fd5b6200014083620000ee565b602084810151919350906001600160401b03808211156200016057600080fd5b818601915086601f8301126200017557600080fd5b8151818111156200018a576200018a6200010b565b8060051b604051601f19603f83011681018181108582111715620001b257620001b26200010b565b604052918252848201925083810185019189831115620001d157600080fd5b938501935b82851015620001fa57620001ea85620000ee565b84529385019392850192620001d6565b8096505050505050509250929050565b611146806200021a6000396000f3fe608060405234801561001057600080fd5b50600436106100ea5760003560e01c8063561bc3c31161008c5780637e97a44d116100665780637e97a44d146101f3578063844c40e014610206578063e486033914610231578063f851a4401461029b57600080fd5b8063561bc3c3146101ba57806369328dec146101cd57806375829def146101e057600080fd5b80631b1dc360116100c85780631b1dc360146101565780633120520c146101695780633f3a27d61461017c5780634bdde1cf1461018f57600080fd5b806302b54ede146100ef57806307fbc656146101045780630a1b364e14610131575b600080fd5b6101026100fd366004610e77565b6102ae565b005b610117610112366004610e99565b6103ed565b604080519283526020830191909152015b60405180910390f35b61014861013f366004610ec3565b60009392505050565b604051908152602001610128565b610102610164366004610ec3565b610429565b610102610177366004610eff565b61058c565b61010261018a366004610eff565b610682565b61014861019d366004610f32565b600460209081526000928352604080842090915290825290205481565b6101026101c8366004610ec3565b61072a565b6101026101db366004610ec3565b61084c565b6101026101ee366004610e77565b610c90565b610102610201366004610f65565b610cf9565b610219610214366004610fda565b610d51565b6040516001600160a01b039091168152602001610128565b61027161023f366004610e77565b600260208190526000918252604090912080546001820154928201546003830154600490930154919392909160ff1685565b6040805195865260208601949094529284019190915260608301521515608082015260a001610128565b600054610219906001600160a01b031681565b60408051600360fc1b6020820152602b60f81b60218201819052603360f81b6022830152602382018190527115da5d1a191c985dd85b081b9bdd1a58d95960721b602483015260368201527f506c65617365206368636b20746865204465466920477561726469616e20646160378201527f7368626f61726420746f207669657720746865207374617465206f6620796f756057820152691c881c1c9bdd1bd8dbdb60b21b607782015281516061818303018152608182019283905263ba3d69d760e01b9092527387da9af1899ad477c67fea31ce89c1d2435c77dc91829163ba3d69d7916103b7917386d42386c4fc038e0bf4edb457b2caa96b1195ed918791608501610ff3565b600060405180830381600087803b1580156103d157600080fd5b505af11580156103e5573d6000803e3d6000fd5b505050505050565b6003602052816000526040600020818154811061040957600080fd5b600091825260209091206002909102018054600190910154909250905082565b61043233610d7b565b61047c5760405162461bcd60e51b81526020600482015260166024820152754f6e6c79206775617264656420636f6e74726163747360501b60448201526064015b60405180910390fd5b6001600160a01b0383166000908152600260205260409020600481015460ff166104df5760405162461bcd60e51b8152602060048201526014602482015273151bdad95b88191bd95cc81b9bdd08195e1a5cdd60621b6044820152606401610473565b828160000160008282546104f3919061107a565b90915550506001600160a01b0380831660009081526004602090815260408083209388168352929052908120805485929061052f90849061107a565b90915550506040805180820182529384524260208086019182526001600160a01b03969096166000908152600387529182208054600180820183559184529690922094516002909602909401948555925193909201929092555050565b6000546001600160a01b031633146105fe5760405162461bcd60e51b815260206004820152602f60248201527f4f6e6c79207468652063757272656e742061646d696e2063616e20726567697360448201526e3a32b91030903732bb903a37b5b2b760891b6064820152608401610473565b6001600160a01b0383166000908152600260205260409020600481015460ff16156106625760405162461bcd60e51b8152602060048201526014602482015273546f6b656e20616c72656164792065786973747360601b6044820152606401610473565b60048101805460ff19166001179055600381019290925560029091015550565b6000546001600160a01b031633146107025760405162461bcd60e51b815260206004820152603860248201527f4f6e6c79207468652063757272656e742061646d696e2063616e206f7665727260448201527f69646520746865207769746864726177616c206c696d697400000000000000006064820152608401610473565b6001600160a01b03909216600090815260026020819052604090912060038101929092550155565b61073333610d7b565b6107785760405162461bcd60e51b81526020600482015260166024820152754f6e6c79206775617264656420636f6e74726163747360501b6044820152606401610473565b60405162d8ee1b60e51b81526001600160a01b03808516600483015260248201849052821660448201523090631b1dc36090606401600060405180830381600087803b1580156107c757600080fd5b505af11580156107db573d6000803e3d6000fd5b5050604051631a4ca37b60e21b81526001600160a01b03808716600483015260248201869052841660448201523092506369328dec9150606401600060405180830381600087803b15801561082f57600080fd5b505af1158015610843573d6000803e3d6000fd5b50505050505050565b6001600160a01b0380841660009081526002602052604090209082166108b45760405162461bcd60e51b815260206004820152601960248201527f6e65656420746f20696e636c75646520726563697069656e74000000000000006044820152606401610473565b600481015460ff166108ff5760405162461bcd60e51b8152602060048201526014602482015273151bdad95b88191bd95cc81b9bdd08195e1a5cdd60621b6044820152606401610473565b805461094d5760405162461bcd60e51b815260206004820152601b60248201527f4e6f206c6f636b65642066756e647320746f20776974686472617700000000006044820152606401610473565b805483111561099e5760405162461bcd60e51b815260206004820152601d60248201527f496e73756666696369656e7420617661696c61626c6520616d6f756e740000006044820152606401610473565b6001600160a01b0384166000908152600360205260408120905b8154811015610ad75782600201548282815481106109d8576109d8611092565b906000526020600020906002020160010154426109f591906110a8565b1115610ac557818181548110610a0d57610a0d611092565b906000526020600020906002020160000154836001016000828254610a3291906110a8565b909155505081548290610a47906001906110a8565b81548110610a5757610a57611092565b9060005260206000209060020201828281548110610a7757610a77611092565b6000918252602090912082546002909202019081556001918201549101558154829080610aa657610aa66110bf565b6000828152602081206002600019909301928302018181556001015590555b80610acf816110d5565b9150506109b8565b506001600160a01b0380841660009081526004602090815260408083209389168352929052205484811015610b605760405162461bcd60e51b815260206004820152602960248201527f796f7520646f6e2774206861766520656e6f7567682062616c616e636520746f60448201526820776974686472617760b81b6064820152608401610473565b600083600301548460010154610b7691906110a8565b9050600086821115610b89575085610b9e565b6000610b9583896110a8565b11156100ea5750805b6001600160a01b038087166000908152600460209081526040808320938c1683529290529081208054839290610bd59084906110a8565b9091555050845481908690600090610bee9084906110a8565b9250508190555080856001016000828254610c09919061107a565b909155505060405163a9059cbb60e01b81526001600160a01b0387811660048301526024820183905289919082169063a9059cbb906044016020604051808303816000875af1158015610c60573d6000803e3d6000fd5b505050506040513d601f19601f82011682018060405250810190610c8491906110ee565b50505050505050505050565b6000546001600160a01b03163314610cd75760405162461bcd60e51b815260206004820152600a60248201526927b7363c9030b236b4b760b11b6044820152606401610473565b600080546001600160a01b0319166001600160a01b0392909216919091179055565b6000546001600160a01b03163314610d405760405162461bcd60e51b815260206004820152600a60248201526927b7363c9030b236b4b760b11b6044820152606401610473565b610d4c60018383610de3565b505050565b60018181548110610d6157600080fd5b6000918252602090912001546001600160a01b0316905081565b600080805b600154811015610ddc57836001600160a01b031660018281548110610da757610da7611092565b6000918252602090912001546001600160a01b031603610dca5760019150610ddc565b80610dd4816110d5565b915050610d80565b5092915050565b828054828255906000526020600020908101928215610e36579160200282015b82811115610e365781546001600160a01b0319166001600160a01b03843516178255602090920191600190910190610e03565b50610e42929150610e46565b5090565b5b80821115610e425760008155600101610e47565b80356001600160a01b0381168114610e7257600080fd5b919050565b600060208284031215610e8957600080fd5b610e9282610e5b565b9392505050565b60008060408385031215610eac57600080fd5b610eb583610e5b565b946020939093013593505050565b600080600060608486031215610ed857600080fd5b610ee184610e5b565b925060208401359150610ef660408501610e5b565b90509250925092565b600080600060608486031215610f1457600080fd5b610f1d84610e5b565b95602085013595506040909401359392505050565b60008060408385031215610f4557600080fd5b610f4e83610e5b565b9150610f5c60208401610e5b565b90509250929050565b60008060208385031215610f7857600080fd5b823567ffffffffffffffff80821115610f9057600080fd5b818501915085601f830112610fa457600080fd5b813581811115610fb357600080fd5b8660208260051b8501011115610fc857600080fd5b60209290920196919550909350505050565b600060208284031215610fec57600080fd5b5035919050565b600060018060a01b038086168352602081861681850152606060408501528451915081606085015260005b8281101561103a5785810182015185820160800152810161101e565b8281111561104c576000608084870101525b5050601f01601f191691909101608001949350505050565b634e487b7160e01b600052601160045260246000fd5b6000821982111561108d5761108d611064565b500190565b634e487b7160e01b600052603260045260246000fd5b6000828210156110ba576110ba611064565b500390565b634e487b7160e01b600052603160045260246000fd5b6000600182016110e7576110e7611064565b5060010190565b60006020828403121561110057600080fd5b81518015158114610e9257600080fdfea26469706673582212209b0ef78a7629026ea9b4aba16471945072c996930ecaebf6731ee91957dc4aad64736f6c634300080e0033",
    "linkReferences": {}
  },
  "methodIdentifiers": {
    "admin()": "f851a440",
    "getMaxWithdrawal(address,uint256,address)": "0a1b364e",
    "guardedContracts(uint256)": "844c40e0",
    "inflows(address,uint256)": "07fbc656",
    "lockedFunds(address,address)": "4bdde1cf",
    "modifyGuardedContracts(address[])": "7e97a44d",
    "overrideLimit(address,uint256,uint256)": "3f3a27d6",
    "pushAlert(address)": "02b54ede",
    "recordInflow(address,uint256,address)": "1b1dc360",
    "recordInflowAndWithdrawAvailable(address,uint256,address)": "561bc3c3",
    "registerToken(address,uint256,uint256)": "3120520c",
    "tokens(address)": "e4860339",
    "transferAdmin(address)": "75829def",
    "withdraw(address,uint256,address)": "69328dec"
  },
  "id": 1
}