{
  "abi": [
    {
      "inputs": [],
      "name": "check",
      "outputs": [
        {
          "internalType": "uint256",
          "name": "",
          "type": "uint256"
        }
      ],
      "stateMutability": "nonpayable",
      "type": "function"
    },
    {
      "inputs": [],
      "name": "hi",
      "outputs": [
        {
          "internalType": "uint256",
          "name": "",
          "type": "uint256"
        }
      ],
      "stateMutability": "nonpayable",
      "type": "function"
    }
  ],
  "bytecode": {
    "object": "0x60806040526000805534801561001457600080fd5b5060d8806100236000396000f3fe6080604052348015600f57600080fd5b506004361060325760003560e01c8063919840ad146037578063a99dca3f14604f575b600080fd5b603d6055565b60405190815260200160405180910390f35b603d606f565b600080548180606283607c565b9190505550600054905090565b600060776055565b905090565b600060018201609b57634e487b7160e01b600052601160045260246000fd5b506001019056fea2646970667358221220193edaac1e5aea9794e757211af3c2ef21b455c376ddedda6db251b9bfba647e64736f6c634300080e0033",
    "linkReferences": {}
  },
  "methodIdentifiers": {
    "check()": "919840ad",
    "hi()": "a99dca3f"
  },
  "id": 21
}