{
  "abi": [
    {
      "inputs": [],
      "name": "check",
      "outputs": [
        {
          "internalType": "uint256",
          "name": "",
          "type": "uint256"
        }
      ],
      "stateMutability": "nonpayable",
      "type": "function"
    }
  ],
  "bytecode": {
    "object": "0x60806040526000805534801561001457600080fd5b5060bb806100236000396000f3fe6080604052348015600f57600080fd5b506004361060285760003560e01c8063919840ad14602d575b600080fd5b60336045565b60405190815260200160405180910390f35b600080548180605283605f565b9190505550600054905090565b600060018201607e57634e487b7160e01b600052601160045260246000fd5b506001019056fea2646970667358221220294d99516bacc0a4abb14ff4a6163f83a811a1e31c11ac963707d26d2d1d36b464736f6c634300080e0033",
    "linkReferences": {}
  },
  "methodIdentifiers": {
    "check()": "919840ad"
  },
  "id": 19
}