{
  "abi": [
    {
      "inputs": [
        {
          "internalType": "uint256",
          "name": "_timeExtension",
          "type": "uint256"
        }
      ],
      "name": "extendTimeout",
      "outputs": [],
      "stateMutability": "nonpayable",
      "type": "function"
    },
    {
      "inputs": [
        {
          "internalType": "address",
          "name": "_admin",
          "type": "address"
        },
        {
          "internalType": "uint256",
          "name": "_timeout",
          "type": "uint256"
        },
        {
          "internalType": "uint256",
          "name": "_maxDrawdownPrcnt",
          "type": "uint256"
        }
      ],
      "name": "initialize",
      "outputs": [],
      "stateMutability": "nonpayable",
      "type": "function"
    },
    {
      "inputs": [],
      "name": "overrideLimit",
      "outputs": [],
      "stateMutability": "nonpayable",
      "type": "function"
    },
    {
      "inputs": [],
      "name": "pushAlert",
      "outputs": [],
      "stateMutability": "nonpayable",
      "type": "function"
    },
    {
      "inputs": [
        {
          "internalType": "address",
          "name": "_tokenAddress",
          "type": "address"
        },
        {
          "internalType": "uint256",
          "name": "_amount",
          "type": "uint256"
        }
      ],
      "name": "recordInflow",
      "outputs": [],
      "stateMutability": "nonpayable",
      "type": "function"
    },
    {
      "inputs": [
        {
          "internalType": "address",
          "name": "_tokenAddress",
          "type": "address"
        },
        {
          "internalType": "uint256",
          "name": "_bootsrapAmount",
          "type": "uint256"
        }
      ],
      "name": "registerToken",
      "outputs": [],
      "stateMutability": "nonpayable",
      "type": "function"
    },
    {
      "inputs": [
        {
          "internalType": "address",
          "name": "_tokenAddress",
          "type": "address"
        },
        {
          "internalType": "uint256",
          "name": "_amount",
          "type": "uint256"
        },
        {
          "internalType": "address",
          "name": "_recipient",
          "type": "address"
        }
      ],
      "name": "tryOutflow",
      "outputs": [],
      "stateMutability": "nonpayable",
      "type": "function"
    },
    {
      "inputs": [],
      "name": "withdrawLockedFunds",
      "outputs": [],
      "stateMutability": "nonpayable",
      "type": "function"
    }
  ],
  "bytecode": {
    "object": "0x608060405234801561001057600080fd5b506101d7806100206000396000f3fe608060405234801561001057600080fd5b50600436106100885760003560e01c8063952aede91161005b578063952aede91461008d578063d0ccfa6c146100b4578063d9f6bca81461009f578063ffe50332146100c257600080fd5b806302ca59941461008d5780630f7624ae1461009f5780635c56e4221461009f5780637a1ac61e146100a1575b600080fd5b61009f61009b3660046100ef565b5050565b005b61009f6100af366004610119565b505050565b61009f6100af36600461014c565b61009f6100d0366004610188565b50565b80356001600160a01b03811681146100ea57600080fd5b919050565b6000806040838503121561010257600080fd5b61010b836100d3565b946020939093013593505050565b60008060006060848603121561012e57600080fd5b610137846100d3565b95602085013595506040909401359392505050565b60008060006060848603121561016157600080fd5b61016a846100d3565b92506020840135915061017f604085016100d3565b90509250925092565b60006020828403121561019a57600080fd5b503591905056fea2646970667358221220a32fe8f8398ebc0f6b0def14e60d3c8fe9771980ee75f2d7e7f6f33f86045d5764736f6c634300080e0033",
    "linkReferences": {}
  },
  "methodIdentifiers": {
    "extendTimeout(uint256)": "ffe50332",
    "initialize(address,uint256,uint256)": "7a1ac61e",
    "overrideLimit()": "5c56e422",
    "pushAlert()": "d9f6bca8",
    "recordInflow(address,uint256)": "952aede9",
    "registerToken(address,uint256)": "02ca5994",
    "tryOutflow(address,uint256,address)": "d0ccfa6c",
    "withdrawLockedFunds()": "0f7624ae"
  },
  "id": 0
}