{
  "abi": [
    {
      "inputs": [
        {
          "internalType": "address",
          "name": "_admin",
          "type": "address"
        },
        {
          "internalType": "uint256",
          "name": "_timeout",
          "type": "uint256"
        },
        {
          "internalType": "uint256",
          "name": "_rateDuration",
          "type": "uint256"
        },
        {
          "internalType": "uint256",
          "name": "_maxDrawdownPercentage",
          "type": "uint256"
        }
      ],
      "stateMutability": "nonpayable",
      "type": "constructor"
    },
    {
      "inputs": [],
      "name": "admin",
      "outputs": [
        {
          "internalType": "address",
          "name": "",
          "type": "address"
        }
      ],
      "stateMutability": "view",
      "type": "function"
    },
    {
      "inputs": [
        {
          "internalType": "uint256",
          "name": "_timeExtension",
          "type": "uint256"
        }
      ],
      "name": "extendTimeout",
      "outputs": [],
      "stateMutability": "nonpayable",
      "type": "function"
    },
    {
      "inputs": [
        {
          "internalType": "address",
          "name": "",
          "type": "address"
        },
        {
          "internalType": "uint256",
          "name": "",
          "type": "uint256"
        }
      ],
      "name": "inflows",
      "outputs": [
        {
          "internalType": "uint256",
          "name": "amount",
          "type": "uint256"
        },
        {
          "internalType": "uint256",
          "name": "timestamp",
          "type": "uint256"
        }
      ],
      "stateMutability": "view",
      "type": "function"
    },
    {
      "inputs": [
        {
          "internalType": "address",
          "name": "_admin",
          "type": "address"
        },
        {
          "internalType": "uint256",
          "name": "_timeout",
          "type": "uint256"
        },
        {
          "internalType": "uint256",
          "name": "_maxDrawdownPercentage",
          "type": "uint256"
        }
      ],
      "name": "initialize",
      "outputs": [],
      "stateMutability": "nonpayable",
      "type": "function"
    },
    {
      "inputs": [],
      "name": "isRateLimited",
      "outputs": [
        {
          "internalType": "bool",
          "name": "",
          "type": "bool"
        }
      ],
      "stateMutability": "view",
      "type": "function"
    },
    {
      "inputs": [
        {
          "internalType": "address",
          "name": "",
          "type": "address"
        },
        {
          "internalType": "address",
          "name": "",
          "type": "address"
        }
      ],
      "name": "lockedFunds",
      "outputs": [
        {
          "internalType": "uint256",
          "name": "",
          "type": "uint256"
        }
      ],
      "stateMutability": "view",
      "type": "function"
    },
    {
      "inputs": [],
      "name": "maxDrawdownPercentage",
      "outputs": [
        {
          "internalType": "uint256",
          "name": "",
          "type": "uint256"
        }
      ],
      "stateMutability": "view",
      "type": "function"
    },
    {
      "inputs": [],
      "name": "overrideLimit",
      "outputs": [],
      "stateMutability": "nonpayable",
      "type": "function"
    },
    {
      "inputs": [],
      "name": "pushAlert",
      "outputs": [],
      "stateMutability": "nonpayable",
      "type": "function"
    },
    {
      "inputs": [],
      "name": "rateDuration",
      "outputs": [
        {
          "internalType": "uint256",
          "name": "",
          "type": "uint256"
        }
      ],
      "stateMutability": "view",
      "type": "function"
    },
    {
      "inputs": [
        {
          "internalType": "address",
          "name": "_tokenAddress",
          "type": "address"
        },
        {
          "internalType": "uint256",
          "name": "_amount",
          "type": "uint256"
        }
      ],
      "name": "recordInflow",
      "outputs": [],
      "stateMutability": "nonpayable",
      "type": "function"
    },
    {
      "inputs": [
        {
          "internalType": "address",
          "name": "_tokenAddress",
          "type": "address"
        },
        {
          "internalType": "uint256",
          "name": "_bootstrapAmount",
          "type": "uint256"
        }
      ],
      "name": "registerToken",
      "outputs": [],
      "stateMutability": "nonpayable",
      "type": "function"
    },
    {
      "inputs": [],
      "name": "timeout",
      "outputs": [
        {
          "internalType": "uint256",
          "name": "",
          "type": "uint256"
        }
      ],
      "stateMutability": "view",
      "type": "function"
    },
    {
      "inputs": [
        {
          "internalType": "address",
          "name": "",
          "type": "address"
        }
      ],
      "name": "tokens",
      "outputs": [
        {
          "internalType": "uint256",
          "name": "bootstrapAmount",
          "type": "uint256"
        },
        {
          "internalType": "uint256",
          "name": "lockedAmount",
          "type": "uint256"
        },
        {
          "internalType": "bool",
          "name": "exists",
          "type": "bool"
        }
      ],
      "stateMutability": "view",
      "type": "function"
    },
    {
      "inputs": [
        {
          "internalType": "address",
          "name": "_tokenAddress",
          "type": "address"
        },
        {
          "internalType": "uint256",
          "name": "_amount",
          "type": "uint256"
        },
        {
          "internalType": "address",
          "name": "_recipient",
          "type": "address"
        }
      ],
      "name": "tryOutflow",
      "outputs": [],
      "stateMutability": "nonpayable",
      "type": "function"
    },
    {
      "inputs": [],
      "name": "withdrawLockedFunds",
      "outputs": [],
      "stateMutability": "nonpayable",
      "type": "function"
    }
  ],
  "bytecode": {
    "object": "0x608060405234801561001057600080fd5b50604051610c54380380610c5483398101604081905261002f91610064565b600080546001600160a01b0319166001600160a01b0395909516949094179093556001919091556002919091556003556100af565b6000806000806080858703121561007a57600080fd5b84516001600160a01b038116811461009157600080fd5b60208601516040870151606090970151919890975090945092505050565b610b96806100be6000396000f3fe608060405234801561001057600080fd5b50600436106101005760003560e01c8063952aede911610097578063e486033911610066578063e4860339146101ff578063f468abaa1461024e578063f851a44014610257578063ffe503321461028257600080fd5b8063952aede9146101d0578063d0ccfa6c146101e3578063d8e1e286146101f6578063d9f6bca81461011857600080fd5b80634bdde1cf116100d35780634bdde1cf146101735780635c56e422146101ac57806370dea79a146101b45780637a1ac61e146101bd57600080fd5b806302ca59941461010557806307fbc6561461011a5780630f7624ae1461014757806320e3ee981461014f575b600080fd5b6101186101133660046109a1565b610295565b005b61012d6101283660046109a1565b610383565b604080519283526020830191909152015b60405180910390f35b6101186103bf565b60005461016390600160a01b900460ff1681565b604051901515815260200161013e565b61019e6101813660046109cb565b600660209081526000928352604080842090915290825290205481565b60405190815260200161013e565b610118610532565b61019e60015481565b6101186101cb3660046109fe565b6105c2565b6101186101de3660046109a1565b610660565b6101186101f1366004610a31565b610815565b61019e60035481565b61023161020d366004610a6d565b60046020526000908152604090208054600182015460029092015490919060ff1683565b60408051938452602084019290925215159082015260600161013e565b61019e60025481565b60005461026a906001600160a01b031681565b6040516001600160a01b03909116815260200161013e565b610118610290366004610a8f565b6108fb565b6000546001600160a01b0316331461030c5760405162461bcd60e51b815260206004820152602f60248201527f4f6e6c79207468652063757272656e742061646d696e2063616e20726567697360448201526e3a32b91030903732bb903a37b5b2b760891b60648201526084015b60405180910390fd5b6001600160a01b0382166000908152600460205260409020600281015460ff16156103705760405162461bcd60e51b8152602060048201526014602482015273546f6b656e20616c72656164792065786973747360601b6044820152606401610303565b60028101805460ff191660011790555550565b6005602052816000526040600020818154811061039f57600080fd5b600091825260209091206002909102018054600190910154909250905082565b336000908152600460205260409020600281015460ff166103f25760405162461bcd60e51b815260040161030390610aa8565b60008160010154116104465760405162461bcd60e51b815260206004820152601b60248201527f4e6f206c6f636b65642066756e647320746f20776974686472617700000000006044820152606401610303565b60015442116104975760405162461bcd60e51b815260206004820152601960248201527f5769746864726177616c206e6f7420617574686f72697a6564000000000000006044820152606401610303565b600181018054600091829055604051909190339083908381818185875af1925050503d80600081146104e5576040519150601f19603f3d011682016040523d82523d6000602084013e6104ea565b606091505b505090508061052d5760405162461bcd60e51b815260206004820152600f60248201526e151c985b9cd9995c8819985a5b1959608a1b6044820152606401610303565b505050565b6000546001600160a01b031633146105b25760405162461bcd60e51b815260206004820152603860248201527f4f6e6c79207468652063757272656e742061646d696e2063616e206f7665727260448201527f69646520746865207769746864726177616c206c696d697400000000000000006064820152608401610303565b6105bd600142610aec565b600155565b6000546001600160a01b031633146106375760405162461bcd60e51b815260206004820152603260248201527f4f6e6c79207468652063757272656e742061646d696e2063616e20696e697469604482015271185b1a5e99481d1a194818dbdb9d1c9858dd60721b6064820152608401610303565b600080546001600160a01b0319166001600160a01b039490941693909317909255600155600255565b6001600160a01b0382166000908152600460205260409020600281015460ff1661069c5760405162461bcd60e51b815260040161030390610aa8565b6001600160a01b03831660009081526005602090815260408083208151808301909252858252428284018181528254600181810185559387529486209351600290950290930193845591519201919091556003546106f991610aec565b90506000805b6001600160a01b038616600090815260056020526040902080548491908390811061072c5761072c610b03565b906000526020600020906002020160010154101561079f576001600160a01b038616600090815260056020526040902080548290811061076e5761076e610b03565b9060005260206000209060020201600001548261078b9190610b19565b91508061079781610b31565b9150506106ff565b80156107eb576001600160a01b03861660009081526005602052604090208054806107cc576107cc610b4a565b6000828152602081206002600019909301928302018181556001015590555b6107f58286610aec565b8460010160008282546108089190610b19565b9091555050505050505050565b6001600160a01b0383166000908152600460205260409020600281015460ff166108515760405162461bcd60e51b815260040161030390610aa8565b80600101548311156108a55760405162461bcd60e51b815260206004820152601d60248201527f496e73756666696369656e7420617661696c61626c6520616d6f756e740000006044820152606401610303565b600054600160a01b900460ff16156108f55760405162461bcd60e51b815260206004820152601360248201527214985d19481b1a5b5a5d08195e18d959591959606a1b6044820152606401610303565b50505050565b6000546001600160a01b0316331461096b5760405162461bcd60e51b815260206004820152602d60248201527f4f6e6c79207468652063757272656e742061646d696e2063616e20657874656e60448201526c19081d1a19481d1a5b595bdd5d609a1b6064820152608401610303565b806001600082825461097d9190610b19565b909155505050565b80356001600160a01b038116811461099c57600080fd5b919050565b600080604083850312156109b457600080fd5b6109bd83610985565b946020939093013593505050565b600080604083850312156109de57600080fd5b6109e783610985565b91506109f560208401610985565b90509250929050565b600080600060608486031215610a1357600080fd5b610a1c84610985565b95602085013595506040909401359392505050565b600080600060608486031215610a4657600080fd5b610a4f84610985565b925060208401359150610a6460408501610985565b90509250925092565b600060208284031215610a7f57600080fd5b610a8882610985565b9392505050565b600060208284031215610aa157600080fd5b5035919050565b602080825260149082015273151bdad95b88191bd95cc81b9bdd08195e1a5cdd60621b604082015260600190565b634e487b7160e01b600052601160045260246000fd5b600082821015610afe57610afe610ad6565b500390565b634e487b7160e01b600052603260045260246000fd5b60008219821115610b2c57610b2c610ad6565b500190565b600060018201610b4357610b43610ad6565b5060010190565b634e487b7160e01b600052603160045260246000fdfea2646970667358221220a522a0f470e6f364c4e1f94277e5aab6e0e660f9543eb3a0d0d627c8c058110364736f6c634300080e0033",
    "linkReferences": {}
  },
  "methodIdentifiers": {
    "admin()": "f851a440",
    "extendTimeout(uint256)": "ffe50332",
    "inflows(address,uint256)": "07fbc656",
    "initialize(address,uint256,uint256)": "7a1ac61e",
    "isRateLimited()": "20e3ee98",
    "lockedFunds(address,address)": "4bdde1cf",
    "maxDrawdownPercentage()": "f468abaa",
    "overrideLimit()": "5c56e422",
    "pushAlert()": "d9f6bca8",
    "rateDuration()": "d8e1e286",
    "recordInflow(address,uint256)": "952aede9",
    "registerToken(address,uint256)": "02ca5994",
    "timeout()": "70dea79a",
    "tokens(address)": "e4860339",
    "tryOutflow(address,uint256,address)": "d0ccfa6c",
    "withdrawLockedFunds()": "0f7624ae"
  },
  "id": 17
}