{
  "abi": [
    {
      "inputs": [
        {
          "internalType": "address",
          "name": "_admin",
          "type": "address"
        },
        {
          "internalType": "uint256",
          "name": "_timeout",
          "type": "uint256"
        },
        {
          "internalType": "uint256",
          "name": "_rateDuration",
          "type": "uint256"
        },
        {
          "internalType": "uint256",
          "name": "_maxDrawdownPercentage",
          "type": "uint256"
        }
      ],
      "stateMutability": "nonpayable",
      "type": "constructor"
    },
    {
      "inputs": [],
      "name": "admin",
      "outputs": [
        {
          "internalType": "address",
          "name": "",
          "type": "address"
        }
      ],
      "stateMutability": "view",
      "type": "function"
    },
    {
      "inputs": [
        {
          "internalType": "uint256",
          "name": "_timeExtension",
          "type": "uint256"
        }
      ],
      "name": "extendTimeout",
      "outputs": [],
      "stateMutability": "nonpayable",
      "type": "function"
    },
    {
      "inputs": [
        {
          "internalType": "address",
          "name": "_admin",
          "type": "address"
        },
        {
          "internalType": "uint256",
          "name": "_timeout",
          "type": "uint256"
        },
        {
          "internalType": "uint256",
          "name": "_maxDrawdownPercentage",
          "type": "uint256"
        }
      ],
      "name": "initialize",
      "outputs": [],
      "stateMutability": "nonpayable",
      "type": "function"
    },
    {
      "inputs": [],
      "name": "maxDrawdownPercentage",
      "outputs": [
        {
          "internalType": "uint256",
          "name": "",
          "type": "uint256"
        }
      ],
      "stateMutability": "view",
      "type": "function"
    },
    {
      "inputs": [],
      "name": "overrideLimit",
      "outputs": [],
      "stateMutability": "nonpayable",
      "type": "function"
    },
    {
      "inputs": [],
      "name": "pushAlert",
      "outputs": [],
      "stateMutability": "nonpayable",
      "type": "function"
    },
    {
      "inputs": [],
      "name": "rateDuration",
      "outputs": [
        {
          "internalType": "uint256",
          "name": "",
          "type": "uint256"
        }
      ],
      "stateMutability": "view",
      "type": "function"
    },
    {
      "inputs": [
        {
          "internalType": "address",
          "name": "_tokenAddress",
          "type": "address"
        },
        {
          "internalType": "uint256",
          "name": "_amount",
          "type": "uint256"
        }
      ],
      "name": "recordInflow",
      "outputs": [],
      "stateMutability": "nonpayable",
      "type": "function"
    },
    {
      "inputs": [
        {
          "internalType": "address",
          "name": "_tokenAddress",
          "type": "address"
        },
        {
          "internalType": "uint256",
          "name": "_bootstrapAmount",
          "type": "uint256"
        }
      ],
      "name": "registerToken",
      "outputs": [],
      "stateMutability": "nonpayable",
      "type": "function"
    },
    {
      "inputs": [],
      "name": "timeout",
      "outputs": [
        {
          "internalType": "uint256",
          "name": "",
          "type": "uint256"
        }
      ],
      "stateMutability": "view",
      "type": "function"
    },
    {
      "inputs": [
        {
          "internalType": "address",
          "name": "",
          "type": "address"
        }
      ],
      "name": "tokens",
      "outputs": [
        {
          "internalType": "uint256",
          "name": "bootstrapAmount",
          "type": "uint256"
        },
        {
          "internalType": "uint256",
          "name": "lockedAmount",
          "type": "uint256"
        },
        {
          "internalType": "bool",
          "name": "exists",
          "type": "bool"
        }
      ],
      "stateMutability": "view",
      "type": "function"
    },
    {
      "inputs": [
        {
          "internalType": "address",
          "name": "_tokenAddress",
          "type": "address"
        },
        {
          "internalType": "uint256",
          "name": "_amount",
          "type": "uint256"
        },
        {
          "internalType": "address",
          "name": "_recipient",
          "type": "address"
        }
      ],
      "name": "tryOutflow",
      "outputs": [],
      "stateMutability": "nonpayable",
      "type": "function"
    },
    {
      "inputs": [],
      "name": "withdrawLockedFunds",
      "outputs": [],
      "stateMutability": "nonpayable",
      "type": "function"
    }
  ],
  "bytecode": {
    "object": "0x608060405234801561001057600080fd5b50604051610b1f380380610b1f83398101604081905261002f91610064565b600080546001600160a01b0319166001600160a01b0395909516949094179093556001919091556002919091556003556100af565b6000806000806080858703121561007a57600080fd5b84516001600160a01b038116811461009157600080fd5b60208601516040870151606090970151919890975090945092505050565b610a61806100be6000396000f3fe608060405234801561001057600080fd5b50600436106100cf5760003560e01c8063d0ccfa6c1161008c578063e486033911610066578063e486033914610157578063f468abaa146101a6578063f851a440146101af578063ffe50332146101da57600080fd5b8063d0ccfa6c1461013b578063d8e1e2861461014e578063d9f6bca8146100e757600080fd5b806302ca5994146100d45780630f7624ae146100e95780635c56e422146100f157806370dea79a146100f95780637a1ac61e14610115578063952aede914610128575b600080fd5b6100e76100e23660046108a3565b6101ed565b005b6100e76102db565b6100e761044a565b61010260015481565b6040519081526020015b60405180910390f35b6100e76101233660046108cd565b6104da565b6100e76101363660046108a3565b610578565b6100e7610149366004610900565b6105d2565b61010260035481565b61018961016536600461093c565b60046020526000908152604090208054600182015460029092015490919060ff1683565b60408051938452602084019290925215159082015260600161010c565b61010260025481565b6000546101c2906001600160a01b031681565b6040516001600160a01b03909116815260200161010c565b6100e76101e836600461095e565b6107fd565b6000546001600160a01b031633146102645760405162461bcd60e51b815260206004820152602f60248201527f4f6e6c79207468652063757272656e742061646d696e2063616e20726567697360448201526e3a32b91030903732bb903a37b5b2b760891b60648201526084015b60405180910390fd5b6001600160a01b0382166000908152600460205260409020600281015460ff16156102c85760405162461bcd60e51b8152602060048201526014602482015273546f6b656e20616c72656164792065786973747360601b604482015260640161025b565b60028101805460ff191660011790555550565b336000908152600460205260409020600281015460ff1661030e5760405162461bcd60e51b815260040161025b90610977565b60008160010154116103625760405162461bcd60e51b815260206004820152601b60248201527f4e6f206c6f636b65642066756e647320746f2077697468647261770000000000604482015260640161025b565b60015442116103af5760405162461bcd60e51b815260206004820152601960248201527815da5d1a191c985dd85b081b9bdd08185d5d1a1bdc9a5e9959603a1b604482015260640161025b565b600181018054600091829055604051909190339083908381818185875af1925050503d80600081146103fd576040519150601f19603f3d011682016040523d82523d6000602084013e610402565b606091505b50509050806104455760405162461bcd60e51b815260206004820152600f60248201526e151c985b9cd9995c8819985a5b1959608a1b604482015260640161025b565b505050565b6000546001600160a01b031633146104ca5760405162461bcd60e51b815260206004820152603860248201527f4f6e6c79207468652063757272656e742061646d696e2063616e206f7665727260448201527f69646520746865207769746864726177616c206c696d69740000000000000000606482015260840161025b565b6104d56001426109bb565b600155565b6000546001600160a01b0316331461054f5760405162461bcd60e51b815260206004820152603260248201527f4f6e6c79207468652063757272656e742061646d696e2063616e20696e697469604482015271185b1a5e99481d1a194818dbdb9d1c9858dd60721b606482015260840161025b565b600080546001600160a01b0319166001600160a01b039490941693909317909255600155600255565b6001600160a01b0382166000908152600460205260409020600281015460ff166105b45760405162461bcd60e51b815260040161025b90610977565b818160010160008282546105c891906109d2565b9091555050505050565b6001600160a01b0383166000908152600460205260409020600281015460ff1661060e5760405162461bcd60e51b815260040161025b90610977565b6000546001600160a01b0316331480610628575060015442115b6106705760405162461bcd60e51b815260206004820152601960248201527815da5d1a191c985dd85b081b9bdd08185d5d1a1bdc9a5e9959603a1b604482015260640161025b565b60006064600254836000015461068691906109ea565b6106909190610a09565b9050808483600101546106a391906109bb565b10156107005760405162461bcd60e51b815260206004820152602660248201527f5769746864726177616c20616d6f756e742065786365656473206d617820647260448201526530bbb237bbb760d11b606482015260840161025b565b83826001015410156107495760405162461bcd60e51b8152602060048201526012602482015271496e73756666696369656e742066756e647360701b604482015260640161025b565b8382600101600082825461075d91906109bb565b90915550506040516000906001600160a01b0385169086908381818185875af1925050503d80600081146107ad576040519150601f19603f3d011682016040523d82523d6000602084013e6107b2565b606091505b50509050806107f55760405162461bcd60e51b815260206004820152600f60248201526e151c985b9cd9995c8819985a5b1959608a1b604482015260640161025b565b505050505050565b6000546001600160a01b0316331461086d5760405162461bcd60e51b815260206004820152602d60248201527f4f6e6c79207468652063757272656e742061646d696e2063616e20657874656e60448201526c19081d1a19481d1a5b595bdd5d609a1b606482015260840161025b565b806001600082825461087f91906109d2565b909155505050565b80356001600160a01b038116811461089e57600080fd5b919050565b600080604083850312156108b657600080fd5b6108bf83610887565b946020939093013593505050565b6000806000606084860312156108e257600080fd5b6108eb84610887565b95602085013595506040909401359392505050565b60008060006060848603121561091557600080fd5b61091e84610887565b92506020840135915061093360408501610887565b90509250925092565b60006020828403121561094e57600080fd5b61095782610887565b9392505050565b60006020828403121561097057600080fd5b5035919050565b602080825260149082015273151bdad95b88191bd95cc81b9bdd08195e1a5cdd60621b604082015260600190565b634e487b7160e01b600052601160045260246000fd5b6000828210156109cd576109cd6109a5565b500390565b600082198211156109e5576109e56109a5565b500190565b6000816000190483118215151615610a0457610a046109a5565b500290565b600082610a2657634e487b7160e01b600052601260045260246000fd5b50049056fea264697066735822122076c873bfd15283f2a384567ea0e3b87a3819230aec1e101588d8c87706d2362f64736f6c634300080e0033",
    "linkReferences": {}
  },
  "methodIdentifiers": {
    "admin()": "f851a440",
    "extendTimeout(uint256)": "ffe50332",
    "initialize(address,uint256,uint256)": "7a1ac61e",
    "maxDrawdownPercentage()": "f468abaa",
    "overrideLimit()": "5c56e422",
    "pushAlert()": "d9f6bca8",
    "rateDuration()": "d8e1e286",
    "recordInflow(address,uint256)": "952aede9",
    "registerToken(address,uint256)": "02ca5994",
    "timeout()": "70dea79a",
    "tokens(address)": "e4860339",
    "tryOutflow(address,uint256,address)": "d0ccfa6c",
    "withdrawLockedFunds()": "0f7624ae"
  },
  "id": 0
}