{
  "abi": [
    {
      "inputs": [
        {
          "internalType": "address",
          "name": "_admin",
          "type": "address"
        },
        {
          "internalType": "uint256",
          "name": "_timeout",
          "type": "uint256"
        },
        {
          "internalType": "uint256",
          "name": "_rateDuration",
          "type": "uint256"
        },
        {
          "internalType": "uint256",
          "name": "_maxDrawdownPercentage",
          "type": "uint256"
        }
      ],
      "stateMutability": "nonpayable",
      "type": "constructor"
    },
    {
      "inputs": [],
      "name": "admin",
      "outputs": [
        {
          "internalType": "address",
          "name": "",
          "type": "address"
        }
      ],
      "stateMutability": "view",
      "type": "function"
    },
    {
      "inputs": [
        {
          "internalType": "uint256",
          "name": "_timeExtension",
          "type": "uint256"
        }
      ],
      "name": "extendTimeout",
      "outputs": [],
      "stateMutability": "nonpayable",
      "type": "function"
    },
    {
      "inputs": [
        {
          "internalType": "address",
          "name": "",
          "type": "address"
        },
        {
          "internalType": "uint256",
          "name": "",
          "type": "uint256"
        }
      ],
      "name": "inflows",
      "outputs": [
        {
          "internalType": "uint256",
          "name": "amount",
          "type": "uint256"
        },
        {
          "internalType": "uint256",
          "name": "timestamp",
          "type": "uint256"
        }
      ],
      "stateMutability": "view",
      "type": "function"
    },
    {
      "inputs": [],
      "name": "isRateLimited",
      "outputs": [
        {
          "internalType": "bool",
          "name": "",
          "type": "bool"
        }
      ],
      "stateMutability": "view",
      "type": "function"
    },
    {
      "inputs": [
        {
          "internalType": "address",
          "name": "",
          "type": "address"
        },
        {
          "internalType": "address",
          "name": "",
          "type": "address"
        }
      ],
      "name": "lockedFunds",
      "outputs": [
        {
          "internalType": "uint256",
          "name": "",
          "type": "uint256"
        }
      ],
      "stateMutability": "view",
      "type": "function"
    },
    {
      "inputs": [],
      "name": "maxDrawdownPercentage",
      "outputs": [
        {
          "internalType": "uint256",
          "name": "",
          "type": "uint256"
        }
      ],
      "stateMutability": "view",
      "type": "function"
    },
    {
      "inputs": [],
      "name": "overrideLimit",
      "outputs": [],
      "stateMutability": "nonpayable",
      "type": "function"
    },
    {
      "inputs": [],
      "name": "pushAlert",
      "outputs": [],
      "stateMutability": "nonpayable",
      "type": "function"
    },
    {
      "inputs": [],
      "name": "rateDuration",
      "outputs": [
        {
          "internalType": "uint256",
          "name": "",
          "type": "uint256"
        }
      ],
      "stateMutability": "view",
      "type": "function"
    },
    {
      "inputs": [
        {
          "internalType": "address",
          "name": "_tokenAddress",
          "type": "address"
        },
        {
          "internalType": "uint256",
          "name": "_amount",
          "type": "uint256"
        }
      ],
      "name": "recordInflow",
      "outputs": [],
      "stateMutability": "nonpayable",
      "type": "function"
    },
    {
      "inputs": [
        {
          "internalType": "address",
          "name": "_tokenAddress",
          "type": "address"
        },
        {
          "internalType": "uint256",
          "name": "_bootstrapAmount",
          "type": "uint256"
        }
      ],
      "name": "registerToken",
      "outputs": [],
      "stateMutability": "nonpayable",
      "type": "function"
    },
    {
      "inputs": [],
      "name": "timeout",
      "outputs": [
        {
          "internalType": "uint256",
          "name": "",
          "type": "uint256"
        }
      ],
      "stateMutability": "view",
      "type": "function"
    },
    {
      "inputs": [
        {
          "internalType": "address",
          "name": "",
          "type": "address"
        }
      ],
      "name": "tokens",
      "outputs": [
        {
          "internalType": "uint256",
          "name": "bootstrapAmount",
          "type": "uint256"
        },
        {
          "internalType": "uint256",
          "name": "lockedAmount",
          "type": "uint256"
        },
        {
          "internalType": "bool",
          "name": "exists",
          "type": "bool"
        }
      ],
      "stateMutability": "view",
      "type": "function"
    },
    {
      "inputs": [
        {
          "internalType": "address",
          "name": "_tokenAddress",
          "type": "address"
        },
        {
          "internalType": "uint256",
          "name": "_amount",
          "type": "uint256"
        },
        {
          "internalType": "address",
          "name": "_recipient",
          "type": "address"
        }
      ],
      "name": "tryOutflow",
      "outputs": [],
      "stateMutability": "nonpayable",
      "type": "function"
    },
    {
      "inputs": [],
      "name": "withdrawLockedFunds",
      "outputs": [],
      "stateMutability": "nonpayable",
      "type": "function"
    }
  ],
  "bytecode": {
    "object": "0x608060405234801561001057600080fd5b50604051610b65380380610b6583398101604081905261002f91610064565b600080546001600160a01b0319166001600160a01b0395909516949094179093556001919091556002919091556003556100af565b6000806000806080858703121561007a57600080fd5b84516001600160a01b038116811461009157600080fd5b60208601516040870151606090970151919890975090945092505050565b610aa7806100be6000396000f3fe608060405234801561001057600080fd5b50600436106100f55760003560e01c8063952aede911610097578063e486033911610066578063e4860339146101e1578063f468abaa14610230578063f851a44014610239578063ffe503321461026457600080fd5b8063952aede9146101b2578063d0ccfa6c146101c5578063d8e1e286146101d8578063d9f6bca81461010d57600080fd5b806320e3ee98116100d357806320e3ee98146101445780634bdde1cf146101685780635c56e422146101a157806370dea79a146101a957600080fd5b806302ca5994146100fa57806307fbc6561461010f5780630f7624ae1461013c575b600080fd5b61010d6101083660046108e5565b610277565b005b61012261011d3660046108e5565b610365565b604080519283526020830191909152015b60405180910390f35b61010d6103a1565b60005461015890600160a01b900460ff1681565b6040519015158152602001610133565b61019361017636600461090f565b600660209081526000928352604080842090915290825290205481565b604051908152602001610133565b61010d610514565b61019360015481565b61010d6101c03660046108e5565b6105a4565b61010d6101d3366004610942565b610759565b61019360035481565b6102136101ef36600461097e565b60046020526000908152604090208054600182015460029092015490919060ff1683565b604080519384526020840192909252151590820152606001610133565b61019360025481565b60005461024c906001600160a01b031681565b6040516001600160a01b039091168152602001610133565b61010d6102723660046109a0565b61083f565b6000546001600160a01b031633146102ee5760405162461bcd60e51b815260206004820152602f60248201527f4f6e6c79207468652063757272656e742061646d696e2063616e20726567697360448201526e3a32b91030903732bb903a37b5b2b760891b60648201526084015b60405180910390fd5b6001600160a01b0382166000908152600460205260409020600281015460ff16156103525760405162461bcd60e51b8152602060048201526014602482015273546f6b656e20616c72656164792065786973747360601b60448201526064016102e5565b60028101805460ff191660011790555550565b6005602052816000526040600020818154811061038157600080fd5b600091825260209091206002909102018054600190910154909250905082565b336000908152600460205260409020600281015460ff166103d45760405162461bcd60e51b81526004016102e5906109b9565b60008160010154116104285760405162461bcd60e51b815260206004820152601b60248201527f4e6f206c6f636b65642066756e647320746f207769746864726177000000000060448201526064016102e5565b60015442116104795760405162461bcd60e51b815260206004820152601960248201527f5769746864726177616c206e6f7420617574686f72697a65640000000000000060448201526064016102e5565b600181018054600091829055604051909190339083908381818185875af1925050503d80600081146104c7576040519150601f19603f3d011682016040523d82523d6000602084013e6104cc565b606091505b505090508061050f5760405162461bcd60e51b815260206004820152600f60248201526e151c985b9cd9995c8819985a5b1959608a1b60448201526064016102e5565b505050565b6000546001600160a01b031633146105945760405162461bcd60e51b815260206004820152603860248201527f4f6e6c79207468652063757272656e742061646d696e2063616e206f7665727260448201527f69646520746865207769746864726177616c206c696d6974000000000000000060648201526084016102e5565b61059f6001426109fd565b600155565b6001600160a01b0382166000908152600460205260409020600281015460ff166105e05760405162461bcd60e51b81526004016102e5906109b9565b6001600160a01b038316600090815260056020908152604080832081518083019092528582524282840181815282546001818101855593875294862093516002909502909301938455915192019190915560035461063d916109fd565b90506000805b6001600160a01b038616600090815260056020526040902080548491908390811061067057610670610a14565b90600052602060002090600202016001015410156106e3576001600160a01b03861660009081526005602052604090208054829081106106b2576106b2610a14565b906000526020600020906002020160000154826106cf9190610a2a565b9150806106db81610a42565b915050610643565b801561072f576001600160a01b038616600090815260056020526040902080548061071057610710610a5b565b6000828152602081206002600019909301928302018181556001015590555b61073982866109fd565b84600101600082825461074c9190610a2a565b9091555050505050505050565b6001600160a01b0383166000908152600460205260409020600281015460ff166107955760405162461bcd60e51b81526004016102e5906109b9565b80600101548311156107e95760405162461bcd60e51b815260206004820152601d60248201527f496e73756666696369656e7420617661696c61626c6520616d6f756e7400000060448201526064016102e5565b600054600160a01b900460ff16156108395760405162461bcd60e51b815260206004820152601360248201527214985d19481b1a5b5a5d08195e18d959591959606a1b60448201526064016102e5565b50505050565b6000546001600160a01b031633146108af5760405162461bcd60e51b815260206004820152602d60248201527f4f6e6c79207468652063757272656e742061646d696e2063616e20657874656e60448201526c19081d1a19481d1a5b595bdd5d609a1b60648201526084016102e5565b80600160008282546108c19190610a2a565b909155505050565b80356001600160a01b03811681146108e057600080fd5b919050565b600080604083850312156108f857600080fd5b610901836108c9565b946020939093013593505050565b6000806040838503121561092257600080fd5b61092b836108c9565b9150610939602084016108c9565b90509250929050565b60008060006060848603121561095757600080fd5b610960846108c9565b925060208401359150610975604085016108c9565b90509250925092565b60006020828403121561099057600080fd5b610999826108c9565b9392505050565b6000602082840312156109b257600080fd5b5035919050565b602080825260149082015273151bdad95b88191bd95cc81b9bdd08195e1a5cdd60621b604082015260600190565b634e487b7160e01b600052601160045260246000fd5b600082821015610a0f57610a0f6109e7565b500390565b634e487b7160e01b600052603260045260246000fd5b60008219821115610a3d57610a3d6109e7565b500190565b600060018201610a5457610a546109e7565b5060010190565b634e487b7160e01b600052603160045260246000fdfea2646970667358221220170a4db578b8b85c0c6eb98313a49fe38bbf045009ecfdab7c137740cb9f8aa464736f6c634300080e0033",
    "linkReferences": {}
  },
  "methodIdentifiers": {
    "admin()": "f851a440",
    "extendTimeout(uint256)": "ffe50332",
    "inflows(address,uint256)": "07fbc656",
    "isRateLimited()": "20e3ee98",
    "lockedFunds(address,address)": "4bdde1cf",
    "maxDrawdownPercentage()": "f468abaa",
    "overrideLimit()": "5c56e422",
    "pushAlert()": "d9f6bca8",
    "rateDuration()": "d8e1e286",
    "recordInflow(address,uint256)": "952aede9",
    "registerToken(address,uint256)": "02ca5994",
    "timeout()": "70dea79a",
    "tokens(address)": "e4860339",
    "tryOutflow(address,uint256,address)": "d0ccfa6c",
    "withdrawLockedFunds()": "0f7624ae"
  },
  "id": 0
}